{
  "contractName": "PollFactory",
  "abi": [
    {
      "anonymous": false,
      "inputs": [
        {
          "indexed": true,
          "internalType": "address",
          "name": "from",
          "type": "address"
        },
        {
          "indexed": false,
          "internalType": "uint256[3]",
          "name": "value",
          "type": "uint256[3]"
        },
        {
          "indexed": false,
          "internalType": "uint256",
          "name": "pollID",
          "type": "uint256"
        }
      ],
      "name": "EndVote",
      "type": "event"
    },
    {
      "anonymous": false,
      "inputs": [
        {
          "indexed": true,
          "internalType": "address",
          "name": "from",
          "type": "address"
        },
        {
          "indexed": true,
          "internalType": "address",
          "name": "to",
          "type": "address"
        },
        {
          "indexed": false,
          "internalType": "uint256",
          "name": "pollID",
          "type": "uint256"
        }
      ],
      "name": "NewVoter",
      "type": "event"
    },
    {
      "anonymous": false,
      "inputs": [
        {
          "indexed": true,
          "internalType": "address",
          "name": "from",
          "type": "address"
        },
        {
          "indexed": false,
          "internalType": "uint256",
          "name": "voteID",
          "type": "uint256"
        }
      ],
      "name": "StartVote",
      "type": "event"
    },
    {
      "anonymous": false,
      "inputs": [
        {
          "indexed": true,
          "internalType": "address",
          "name": "from",
          "type": "address"
        },
        {
          "indexed": false,
          "internalType": "uint256",
          "name": "pollID",
          "type": "uint256"
        }
      ],
      "name": "Voted",
      "type": "event"
    },
    {
      "inputs": [
        {
          "internalType": "uint256",
          "name": "_pollID",
          "type": "uint256"
        }
      ],
      "name": "getPollInfoByID",
      "outputs": [
        {
          "components": [
            {
              "internalType": "uint256",
              "name": "voteID",
              "type": "uint256"
            },
            {
              "internalType": "string[2]",
              "name": "info",
              "type": "string[2]"
            },
            {
              "internalType": "enum PollFactory.Status",
              "name": "status",
              "type": "uint8"
            }
          ],
          "internalType": "struct PollFactory.Info",
          "name": "",
          "type": "tuple"
        }
      ],
      "stateMutability": "view",
      "type": "function"
    },
    {
      "inputs": [
        {
          "internalType": "string",
          "name": "_title",
          "type": "string"
        },
        {
          "internalType": "string",
          "name": "_description",
          "type": "string"
        }
      ],
      "name": "createPoll",
      "outputs": [
        {
          "internalType": "uint256",
          "name": "ID",
          "type": "uint256"
        }
      ],
      "stateMutability": "nonpayable",
      "type": "function"
    },
    {
      "inputs": [
        {
          "internalType": "address",
          "name": "_voter",
          "type": "address"
        },
        {
          "internalType": "uint256",
          "name": "_pollID",
          "type": "uint256"
        }
      ],
      "name": "addVoterToPoll",
      "outputs": [],
      "stateMutability": "nonpayable",
      "type": "function"
    },
    {
      "inputs": [],
      "name": "getVoterPolls",
      "outputs": [
        {
          "components": [
            {
              "internalType": "uint256",
              "name": "voteID",
              "type": "uint256"
            },
            {
              "internalType": "string[2]",
              "name": "info",
              "type": "string[2]"
            },
            {
              "internalType": "enum PollFactory.Status",
              "name": "status",
              "type": "uint8"
            }
          ],
          "internalType": "struct PollFactory.Info[]",
          "name": "",
          "type": "tuple[]"
        }
      ],
      "stateMutability": "view",
      "type": "function"
    },
    {
      "inputs": [],
      "name": "getCreatedPolls",
      "outputs": [
        {
          "components": [
            {
              "internalType": "uint256",
              "name": "voteID",
              "type": "uint256"
            },
            {
              "internalType": "string[2]",
              "name": "info",
              "type": "string[2]"
            },
            {
              "internalType": "enum PollFactory.Status",
              "name": "status",
              "type": "uint8"
            }
          ],
          "internalType": "struct PollFactory.Info[]",
          "name": "",
          "type": "tuple[]"
        }
      ],
      "stateMutability": "view",
      "type": "function"
    },
    {
      "inputs": [
        {
          "internalType": "enum Vote.choices",
          "name": "_choice",
          "type": "uint8"
        },
        {
          "internalType": "uint256",
          "name": "_pollID",
          "type": "uint256"
        }
      ],
      "name": "toVote",
      "outputs": [],
      "stateMutability": "nonpayable",
      "type": "function"
    },
    {
      "inputs": [
        {
          "internalType": "uint256",
          "name": "_pollID",
          "type": "uint256"
        }
      ],
      "name": "getPollResults",
      "outputs": [
        {
          "internalType": "uint256[3]",
          "name": "",
          "type": "uint256[3]"
        }
      ],
      "stateMutability": "view",
      "type": "function"
    },
    {
      "inputs": [
        {
          "internalType": "uint256",
          "name": "_pollID",
          "type": "uint256"
        }
      ],
      "name": "endPoll",
      "outputs": [],
      "stateMutability": "nonpayable",
      "type": "function"
    }
  ],
  "bytecode": "0x608060405234801561001057600080fd5b50613d55806100206000396000f3fe60806040523480156200001157600080fd5b5060043610620000945760003560e01c8063b670e5b01162000063578063b670e5b01462000147578063b9801595146200017d578063e0c63287146200019f578063f43b877814620001bf5762000094565b806304710b66146200009957806333b4097b14620000cf5780637418e1ce14620001055780637b9a9e2c1462000125575b600080fd5b620000b76004803603810190620000b1919062001af1565b620001df565b604051620000c691906200218b565b60405180910390f35b620000ed6004803603810190620000e7919062001b64565b62000567565b604051620000fc919062002016565b60405180910390f35b6200012360048036038101906200011d919062001a43565b62000765565b005b6200012f62000b42565b6040516200013e919062001ff2565b60405180910390f35b6200016560048036038101906200015f919062001b64565b62000dcc565b60405162000174919062002167565b60405180910390f35b6200018762000f47565b60405162000196919062001ff2565b60405180910390f35b620001bd6004803603810190620001b7919062001ab0565b620011d1565b005b620001dd6004803603810190620001d7919062001b64565b62001402565b005b60006040518060a00160405280620001f8600062001689565b81526020013373ffffffffffffffffffffffffffffffffffffffff1681526020016040518060400160405280868152602001858152508152602001600060018111156200026e577f4e487b7100000000000000000000000000000000000000000000000000000000600052602160045260246000fd5b815260200184846040516200028390620016ad565b6200029092919062002060565b604051809103906000f080158015620002ad573d6000803e3d6000fd5b5073ffffffffffffffffffffffffffffffffffffffff1681525060016000620002d7600062001689565b81526020019081526020016000206000820151816000015560208201518160010160006101000a81548173ffffffffffffffffffffffffffffffffffffffff021916908373ffffffffffffffffffffffffffffffffffffffff1602179055506040820151816002019060026200034f929190620016bb565b5060608201518160040160006101000a81548160ff02191690836001811115620003a2577f4e487b7100000000000000000000000000000000000000000000000000000000600052602160045260246000fd5b021790555060808201518160040160016101000a81548173ffffffffffffffffffffffffffffffffffffffff021916908373ffffffffffffffffffffffffffffffffffffffff160217905550905050600260003373ffffffffffffffffffffffffffffffffffffffff1673ffffffffffffffffffffffffffffffffffffffff1681526020019081526020016000206200044662000440600062001689565b62000dcc565b90806001815401808255809150506001900390600052602060002090600402016000909190919091506000820151816000015560208201518160010190600262000492929190620016bb565b5060408201518160030160006101000a81548160ff02191690836001811115620004e5577f4e487b7100000000000000000000000000000000000000000000000000000000600052602160045260246000fd5b02179055505050620004f8600062001697565b3373ffffffffffffffffffffffffffffffffffffffff167f0872a3ba8ade4869023a27144e2bbbf377c181e3f5cf2a7441e05c61b3fb18396200053c600062001689565b6040516200054b91906200218b565b60405180910390a26200055f600062001689565b905092915050565b6200057162001715565b81600160008481526020019081526020016000206000015414620005cc576040517f08c379a0000000000000000000000000000000000000000000000000000000008152600401620005c390620020bd565b60405180910390fd5b60018081111562000606577f4e487b7100000000000000000000000000000000000000000000000000000000600052602160045260246000fd5b6001600084815260200190815260200160002060040160009054906101000a900460ff16600181111562000663577f4e487b7100000000000000000000000000000000000000000000000000000000600052602160045260246000fd5b14620006a6576040517f08c379a00000000000000000000000000000000000000000000000000000000081526004016200069d9062002101565b60405180910390fd5b6001600083815260200190815260200160002060040160019054906101000a900473ffffffffffffffffffffffffffffffffffffffff1673ffffffffffffffffffffffffffffffffffffffff16634717f97c6040518163ffffffff1660e01b815260040160606040518083038186803b1580156200072357600080fd5b505afa15801562000738573d6000803e3d6000fd5b505050506040513d601f19601f820116820180604052508101906200075e919062001a84565b9050919050565b80600160008381526020019081526020016000206000015414620007c0576040517f08c379a0000000000000000000000000000000000000000000000000000000008152600401620007b790620020bd565b60405180910390fd5b60006001811115620007fb577f4e487b7100000000000000000000000000000000000000000000000000000000600052602160045260246000fd5b6001600083815260200190815260200160002060040160009054906101000a900460ff16600181111562000858577f4e487b7100000000000000000000000000000000000000000000000000000000600052602160045260246000fd5b146200089b576040517f08c379a0000000000000000000000000000000000000000000000000000000008152600401620008929062002145565b60405180910390fd5b3373ffffffffffffffffffffffffffffffffffffffff166001600083815260200190815260200160002060010160009054906101000a900473ffffffffffffffffffffffffffffffffffffffff1673ffffffffffffffffffffffffffffffffffffffff161462000942576040517f08c379a000000000000000000000000000000000000000000000000000000000815260040162000939906200209b565b60405180910390fd5b6001600082815260200190815260200160002060040160019054906101000a900473ffffffffffffffffffffffffffffffffffffffff1673ffffffffffffffffffffffffffffffffffffffff1663f4ab9adf836040518263ffffffff1660e01b8152600401620009b3919062001fa8565b600060405180830381600087803b158015620009ce57600080fd5b505af1158015620009e3573d6000803e3d6000fd5b50505050600360008373ffffffffffffffffffffffffffffffffffffffff1673ffffffffffffffffffffffffffffffffffffffff16815260200190815260200160002062000a318262000dcc565b90806001815401808255809150506001900390600052602060002090600402016000909190919091506000820151816000015560208201518160010190600262000a7d929190620016bb565b5060408201518160030160006101000a81548160ff0219169083600181111562000ad0577f4e487b7100000000000000000000000000000000000000000000000000000000600052602160045260246000fd5b021790555050508173ffffffffffffffffffffffffffffffffffffffff163373ffffffffffffffffffffffffffffffffffffffff167f70fc2e54db3766964966128c373d552bd20391352760723a19d23b65084833b48360405162000b3691906200218b565b60405180910390a35050565b60606000600260003373ffffffffffffffffffffffffffffffffffffffff1673ffffffffffffffffffffffffffffffffffffffff168152602001908152602001600020805490501162000bcc576040517f08c379a000000000000000000000000000000000000000000000000000000000815260040162000bc390620020df565b60405180910390fd5b600260003373ffffffffffffffffffffffffffffffffffffffff1673ffffffffffffffffffffffffffffffffffffffff168152602001908152602001600020805480602002602001604051908101604052809291908181526020016000905b8282101562000dc357838290600052602060002090600402016040518060600160405290816000820154815260200160018201600280602002604051908101604052809291906000905b8282101562000d2257838201805462000c8e90620023c5565b80601f016020809104026020016040519081016040528092919081815260200182805462000cbc90620023c5565b801562000d0d5780601f1062000ce15761010080835404028352916020019162000d0d565b820191906000526020600020905b81548152906001019060200180831162000cef57829003601f168201915b50505050508152602001906001019062000c75565b5050505081526020016003820160009054906101000a900460ff16600181111562000d76577f4e487b7100000000000000000000000000000000000000000000000000000000600052602160045260246000fd5b600181111562000daf577f4e487b7100000000000000000000000000000000000000000000000000000000600052602160045260246000fd5b815250508152602001906001019062000c2b565b50505050905090565b62000dd662001737565b60405180606001604052806001600085815260200190815260200160002060000154815260200160016000858152602001908152602001600020600201600280602002604051908101604052809291906000905b8282101562000ed757838201805462000e4390620023c5565b80601f016020809104026020016040519081016040528092919081815260200182805462000e7190620023c5565b801562000ec25780601f1062000e965761010080835404028352916020019162000ec2565b820191906000526020600020905b81548152906001019060200180831162000ea457829003601f168201915b50505050508152602001906001019062000e2a565b5050505081526020016001600085815260200190815260200160002060040160009054906101000a900460ff16600181111562000f3d577f4e487b7100000000000000000000000000000000000000000000000000000000600052602160045260246000fd5b8152509050919050565b60606000600360003373ffffffffffffffffffffffffffffffffffffffff1673ffffffffffffffffffffffffffffffffffffffff168152602001908152602001600020805490501162000fd1576040517f08c379a000000000000000000000000000000000000000000000000000000000815260040162000fc89062002123565b60405180910390fd5b600360003373ffffffffffffffffffffffffffffffffffffffff1673ffffffffffffffffffffffffffffffffffffffff168152602001908152602001600020805480602002602001604051908101604052809291908181526020016000905b82821015620011c857838290600052602060002090600402016040518060600160405290816000820154815260200160018201600280602002604051908101604052809291906000905b82821015620011275783820180546200109390620023c5565b80601f0160208091040260200160405190810160405280929190818152602001828054620010c190620023c5565b8015620011125780601f10620010e65761010080835404028352916020019162001112565b820191906000526020600020905b815481529060010190602001808311620010f457829003601f168201915b5050505050815260200190600101906200107a565b5050505081526020016003820160009054906101000a900460ff1660018111156200117b577f4e487b7100000000000000000000000000000000000000000000000000000000600052602160045260246000fd5b6001811115620011b4577f4e487b7100000000000000000000000000000000000000000000000000000000600052602160045260246000fd5b815250508152602001906001019062001030565b50505050905090565b806001600083815260200190815260200160002060000154146200122c576040517f08c379a00000000000000000000000000000000000000000000000000000000081526004016200122390620020bd565b60405180910390fd5b6000600181111562001267577f4e487b7100000000000000000000000000000000000000000000000000000000600052602160045260246000fd5b6001600083815260200190815260200160002060040160009054906101000a900460ff166001811115620012c4577f4e487b7100000000000000000000000000000000000000000000000000000000600052602160045260246000fd5b1462001307576040517f08c379a0000000000000000000000000000000000000000000000000000000008152600401620012fe9062002145565b60405180910390fd5b6001600082815260200190815260200160002060040160019054906101000a900473ffffffffffffffffffffffffffffffffffffffff1673ffffffffffffffffffffffffffffffffffffffff1663bceb514d33846040518363ffffffff1660e01b81526004016200137a92919062001fc5565b600060405180830381600087803b1580156200139557600080fd5b505af1158015620013aa573d6000803e3d6000fd5b505050503373ffffffffffffffffffffffffffffffffffffffff167f4d99b957a2bc29a30ebd96a7be8e68fe50a3c701db28a91436490b7d53870ca482604051620013f691906200218b565b60405180910390a25050565b806001600083815260200190815260200160002060000154146200145d576040517f08c379a00000000000000000000000000000000000000000000000000000000081526004016200145490620020bd565b60405180910390fd5b3373ffffffffffffffffffffffffffffffffffffffff166001600083815260200190815260200160002060010160009054906101000a900473ffffffffffffffffffffffffffffffffffffffff1673ffffffffffffffffffffffffffffffffffffffff161462001504576040517f08c379a0000000000000000000000000000000000000000000000000000000008152600401620014fb906200209b565b60405180910390fd5b6001600082815260200190815260200160002060040160019054906101000a900473ffffffffffffffffffffffffffffffffffffffff1673ffffffffffffffffffffffffffffffffffffffff1663b92239466040518163ffffffff1660e01b8152600401606060405180830381600087803b1580156200158357600080fd5b505af115801562001598573d6000803e3d6000fd5b505050506040513d601f19601f82011682018060405250810190620015be919062001a84565b50600180600083815260200190815260200160002060040160006101000a81548160ff021916908360018111156200161f577f4e487b7100000000000000000000000000000000000000000000000000000000600052602160045260246000fd5b02179055506000620016318262000567565b90503373ffffffffffffffffffffffffffffffffffffffff167f37fae4a2b8d1840eab58c94b494748db10e5575e7087ec69c7e7989daab0512b82846040516200167d92919062002033565b60405180910390a25050565b600081600001549050919050565b6001816000016000828254019250508190555050565b61169b806200268583390190565b826002810192821562001702579160200282015b8281111562001701578251829080519060200190620016f092919062001799565b5091602001919060010190620016cf565b5b5090506200171191906200182a565b5090565b6040518060600160405280600390602082028036833780820191505090505090565b6040518060600160405280600081526020016200175362001852565b81526020016000600181111562001793577f4e487b7100000000000000000000000000000000000000000000000000000000600052602160045260246000fd5b81525090565b828054620017a790620023c5565b90600052602060002090601f016020900481019282620017cb576000855562001817565b82601f10620017e657805160ff191683800117855562001817565b8280016001018555821562001817579182015b8281111562001816578251825591602001919060010190620017f9565b5b5090506200182691906200187a565b5090565b5b808211156200184e576000818162001844919062001899565b506001016200182b565b5090565b60405180604001604052806002905b6060815260200190600190039081620018615790505090565b5b80821115620018955760008160009055506001016200187b565b5090565b508054620018a790620023c5565b6000825580601f10620018bb5750620018dc565b601f016020900490600052602060002090810190620018db91906200187a565b5b50565b6000620018f6620018f084620021d1565b620021a8565b905080828560208602820111156200190d57600080fd5b60005b8581101562001941578162001926888262001a2c565b84526020840193506020830192505060018101905062001910565b5050509392505050565b6000620019626200195c84620021fa565b620021a8565b9050828152602081018484840111156200197b57600080fd5b6200198884828562002380565b509392505050565b600081359050620019a1816200263f565b92915050565b600082601f830112620019b957600080fd5b6003620019c8848285620018df565b91505092915050565b600081359050620019e28162002659565b92915050565b600082601f830112620019fa57600080fd5b813562001a0c8482602086016200194b565b91505092915050565b60008135905062001a26816200266a565b92915050565b60008151905062001a3d816200266a565b92915050565b6000806040838503121562001a5757600080fd5b600062001a678582860162001990565b925050602062001a7a8582860162001a15565b9150509250929050565b60006060828403121562001a9757600080fd5b600062001aa784828501620019a7565b91505092915050565b6000806040838503121562001ac457600080fd5b600062001ad485828601620019d1565b925050602062001ae78582860162001a15565b9150509250929050565b6000806040838503121562001b0557600080fd5b600083013567ffffffffffffffff81111562001b2057600080fd5b62001b2e85828601620019e8565b925050602083013567ffffffffffffffff81111562001b4c57600080fd5b62001b5a85828601620019e8565b9150509250929050565b60006020828403121562001b7757600080fd5b600062001b878482850162001a15565b91505092915050565b600062001b9e838362001d6e565b905092915050565b600062001bb4838362001eda565b905092915050565b600062001bca838362001f86565b60208301905092915050565b62001be181620022f0565b82525050565b600062001bf48262002254565b62001c008185620022a7565b93508360208202850162001c148562002230565b8060005b8581101562001c56578484038952815162001c34858262001b90565b945062001c418362002280565b925060208a0199505060018101905062001c18565b50829750879550505050505092915050565b600062001c75826200225f565b62001c818185620022b2565b93508360208202850162001c95856200223a565b8060005b8581101562001cd7578484038952815162001cb5858262001ba6565b945062001cc2836200228d565b925060208a0199505060018101905062001c99565b50829750879550505050505092915050565b62001cf4816200226a565b62001d008184620022c3565b925062001d0d826200224a565b8060005b8381101562001d4457815162001d28878262001bbc565b965062001d35836200229a565b92505060018101905062001d11565b505050505050565b62001d578162002358565b82525050565b62001d68816200236c565b82525050565b600062001d7b8262002275565b62001d878185620022ce565b935062001d998185602086016200238f565b62001da481620024be565b840191505092915050565b600062001dbc8262002275565b62001dc88185620022df565b935062001dda8185602086016200238f565b62001de581620024be565b840191505092915050565b600062001dff602283620022df565b915062001e0c82620024cf565b604082019050919050565b600062001e26601983620022df565b915062001e33826200251e565b602082019050919050565b600062001e4d602183620022df565b915062001e5a8262002547565b604082019050919050565b600062001e74601683620022df565b915062001e818262002596565b602082019050919050565b600062001e9b601683620022df565b915062001ea882620025bf565b602082019050919050565b600062001ec2601883620022df565b915062001ecf82620025e8565b602082019050919050565b600060608301600083015162001ef4600086018262001f86565b506020830151848203602086015262001f0e828262001be7565b915050604083015162001f25604086018262001d4c565b508091505092915050565b600060608301600083015162001f4a600086018262001f86565b506020830151848203602086015262001f64828262001be7565b915050604083015162001f7b604086018262001d4c565b508091505092915050565b62001f91816200234e565b82525050565b62001fa2816200234e565b82525050565b600060208201905062001fbf600083018462001bd6565b92915050565b600060408201905062001fdc600083018562001bd6565b62001feb602083018462001d5d565b9392505050565b600060208201905081810360008301526200200e818462001c68565b905092915050565b60006060820190506200202d600083018462001ce9565b92915050565b60006080820190506200204a600083018562001ce9565b62002059606083018462001f97565b9392505050565b600060408201905081810360008301526200207c818562001daf565b9050818103602083015262002092818462001daf565b90509392505050565b60006020820190508181036000830152620020b68162001df0565b9050919050565b60006020820190508181036000830152620020d88162001e17565b9050919050565b60006020820190508181036000830152620020fa8162001e3e565b9050919050565b600060208201905081810360008301526200211c8162001e65565b9050919050565b600060208201905081810360008301526200213e8162001e8c565b9050919050565b60006020820190508181036000830152620021608162001eb3565b9050919050565b6000602082019050818103600083015262002183818462001f30565b905092915050565b6000602082019050620021a2600083018462001f97565b92915050565b6000620021b4620021c7565b9050620021c28282620023fb565b919050565b6000604051905090565b600067ffffffffffffffff821115620021ef57620021ee6200248f565b5b602082029050919050565b600067ffffffffffffffff8211156200221857620022176200248f565b5b6200222382620024be565b9050602081019050919050565b6000819050919050565b6000819050602082019050919050565b6000819050919050565b600060029050919050565b600081519050919050565b600060039050919050565b600081519050919050565b6000602082019050919050565b6000602082019050919050565b6000602082019050919050565b600081905092915050565b600082825260208201905092915050565b600081905092915050565b600082825260208201905092915050565b600082825260208201905092915050565b6000620022fd826200232e565b9050919050565b6000819050620023148262002611565b919050565b6000819050620023298262002628565b919050565b600073ffffffffffffffffffffffffffffffffffffffff82169050919050565b6000819050919050565b6000620023658262002304565b9050919050565b6000620023798262002319565b9050919050565b82818337600083830152505050565b60005b83811015620023af57808201518184015260208101905062002392565b83811115620023bf576000848401525b50505050565b60006002820490506001821680620023de57607f821691505b60208210811415620023f557620023f462002460565b5b50919050565b6200240682620024be565b810181811067ffffffffffffffff821117156200242857620024276200248f565b5b80604052505050565b7f4e487b7100000000000000000000000000000000000000000000000000000000600052602160045260246000fd5b7f4e487b7100000000000000000000000000000000000000000000000000000000600052602260045260246000fd5b7f4e487b7100000000000000000000000000000000000000000000000000000000600052604160045260246000fd5b6000601f19601f8301169050919050565b7f4f6e6c7920746865206f776e65722063616e207573652074686973206d65746860008201527f6f64000000000000000000000000000000000000000000000000000000000000602082015250565b7f566f74696e67206973206e6f7420637265617465642079657400000000000000600082015250565b7f596f7520686176656e2774206372656174656420616e7920706f6c6c7320796560008201527f7400000000000000000000000000000000000000000000000000000000000000602082015250565b7f566f74696e67206973206e6f74206f7665722079657400000000000000000000600082015250565b7f596f7520617265206e6f742079657420766f74696e6700000000000000000000600082015250565b7f566f74696e672068617320616c726561647920656e6465640000000000000000600082015250565b6002811062002625576200262462002431565b5b50565b600381106200263c576200263b62002431565b5b50565b6200264a81620022f0565b81146200265657600080fd5b50565b600381106200266757600080fd5b50565b62002675816200234e565b81146200268157600080fd5b5056fe60806040523480156200001157600080fd5b506040516200169b3803806200169b8339818101604052810190620000379190620002be565b60008251116200007e576040517f08c379a000000000000000000000000000000000000000000000000000000000815260040162000075906200037f565b60405180910390fd5b6000815111620000c5576040517f08c379a0000000000000000000000000000000000000000000000000000000008152600401620000bc90620003a1565b60405180910390fd5b336000806101000a81548173ffffffffffffffffffffffffffffffffffffffff021916908373ffffffffffffffffffffffffffffffffffffffff16021790555081600190805190602001906200011d9291906200019c565b508060029080519060200190620001369291906200019c565b5060008060146101000a81548160ff0219169083151502179055503373ffffffffffffffffffffffffffffffffffffffff167f3f5036a427474966327b08a2e16707c7b2f704c86204bd2f669e9580e0f51a5260405160405180910390a2505062000596565b828054620001aa9062000469565b90600052602060002090601f016020900481019282620001ce57600085556200021a565b82601f10620001e957805160ff19168380011785556200021a565b828001600101855582156200021a579182015b8281111562000219578251825591602001919060010190620001fc565b5b5090506200022991906200022d565b5090565b5b80821115620002485760008160009055506001016200022e565b5090565b6000620002636200025d84620003ec565b620003c3565b9050828152602081018484840111156200027c57600080fd5b6200028984828562000433565b509392505050565b600082601f830112620002a357600080fd5b8151620002b58482602086016200024c565b91505092915050565b60008060408385031215620002d257600080fd5b600083015167ffffffffffffffff811115620002ed57600080fd5b620002fb8582860162000291565b925050602083015167ffffffffffffffff8111156200031957600080fd5b620003278582860162000291565b9150509250929050565b60006200034060108362000422565b91506200034d8262000544565b602082019050919050565b60006200036760168362000422565b915062000374826200056d565b602082019050919050565b600060208201905081810360008301526200039a8162000331565b9050919050565b60006020820190508181036000830152620003bc8162000358565b9050919050565b6000620003cf620003e2565b9050620003dd82826200049f565b919050565b6000604051905090565b600067ffffffffffffffff8211156200040a576200040962000504565b5b620004158262000533565b9050602081019050919050565b600082825260208201905092915050565b60005b838110156200045357808201518184015260208101905062000436565b8381111562000463576000848401525b50505050565b600060028204905060018216806200048257607f821691505b60208210811415620004995762000498620004d5565b5b50919050565b620004aa8262000533565b810181811067ffffffffffffffff82111715620004cc57620004cb62000504565b5b80604052505050565b7f4e487b7100000000000000000000000000000000000000000000000000000000600052602260045260246000fd5b7f4e487b7100000000000000000000000000000000000000000000000000000000600052604160045260246000fd5b6000601f19601f8301169050919050565b7f5469746c65206973207265717569726500000000000000000000000000000000600082015250565b7f4465736372697074696f6e206973207265717569726500000000000000000000600082015250565b6110f580620005a66000396000f3fe608060405234801561001057600080fd5b50600436106100625760003560e01c80634717f97c146100675780634a79d50c146100855780637284e416146100a3578063b9223946146100c1578063bceb514d146100df578063f4ab9adf146100fb575b600080fd5b61006f610117565b60405161007c9190610c91565b60405180910390f35b61008d610318565b60405161009a9190610cac565b60405180910390f35b6100ab6103a6565b6040516100b89190610cac565b60405180910390f35b6100c9610434565b6040516100d69190610c91565b60405180910390f35b6100f960048036038101906100f49190610acc565b610596565b005b61011560048036038101906101109190610aa3565b610837565b005b61011f610a57565b600060149054906101000a900460ff1661016e576040517f08c379a000000000000000000000000000000000000000000000000000000000815260040161016590610d2e565b60405180910390fd5b6040518060600160405280600360008060028111156101b6577f4e487b7100000000000000000000000000000000000000000000000000000000600052602160045260246000fd5b60028111156101ee577f4e487b7100000000000000000000000000000000000000000000000000000000600052602160045260246000fd5b81526020019081526020016000205481526020016003600060016002811115610240577f4e487b7100000000000000000000000000000000000000000000000000000000600052602160045260246000fd5b6002811115610278577f4e487b7100000000000000000000000000000000000000000000000000000000600052602160045260246000fd5b8152602001908152602001600020548152602001600360006002808111156102c9577f4e487b7100000000000000000000000000000000000000000000000000000000600052602160045260246000fd5b6002811115610301577f4e487b7100000000000000000000000000000000000000000000000000000000600052602160045260246000fd5b815260200190815260200160002054815250905090565b6001805461032590610e46565b80601f016020809104026020016040519081016040528092919081815260200182805461035190610e46565b801561039e5780601f106103735761010080835404028352916020019161039e565b820191906000526020600020905b81548152906001019060200180831161038157829003601f168201915b505050505081565b600280546103b390610e46565b80601f01602080910402602001604051908101604052809291908181526020018280546103df90610e46565b801561042c5780601f106104015761010080835404028352916020019161042c565b820191906000526020600020905b81548152906001019060200180831161040f57829003601f168201915b505050505081565b61043c610a57565b3373ffffffffffffffffffffffffffffffffffffffff1660008054906101000a900473ffffffffffffffffffffffffffffffffffffffff1673ffffffffffffffffffffffffffffffffffffffff16146104ca576040517f08c379a00000000000000000000000000000000000000000000000000000000081526004016104c190610cee565b60405180910390fd5b600060149054906101000a900460ff161561051a576040517f08c379a000000000000000000000000000000000000000000000000000000000815260040161051190610d4e565b60405180910390fd5b6001600060146101000a81548160ff021916908315150217905550600061053f610117565b90503373ffffffffffffffffffffffffffffffffffffffff167fc0eca9b8dc65ce855c7588257602ca2802b96a53ad931fffaa898bb0d581d861826040516105879190610c91565b60405180910390a28091505090565b600060149054906101000a900460ff16156105e6576040517f08c379a00000000000000000000000000000000000000000000000000000000081526004016105dd90610d4e565b60405180910390fd5b600460008373ffffffffffffffffffffffffffffffffffffffff1673ffffffffffffffffffffffffffffffffffffffff16815260200190815260200160002060009054906101000a900460ff16610672576040517f08c379a000000000000000000000000000000000000000000000000000000000815260040161066990610d0e565b60405180910390fd5b600560008373ffffffffffffffffffffffffffffffffffffffff1673ffffffffffffffffffffffffffffffffffffffff16815260200190815260200160002060009054906101000a900460ff16156106ff576040517f08c379a00000000000000000000000000000000000000000000000000000000081526004016106f690610d6e565b60405180910390fd5b6003600082600281111561073c577f4e487b7100000000000000000000000000000000000000000000000000000000600052602160045260246000fd5b6002811115610774577f4e487b7100000000000000000000000000000000000000000000000000000000600052602160045260246000fd5b8152602001908152602001600020600081548092919061079390610e78565b91905055506001600560008473ffffffffffffffffffffffffffffffffffffffff1673ffffffffffffffffffffffffffffffffffffffff16815260200190815260200160002060006101000a81548160ff0219169083151502179055508173ffffffffffffffffffffffffffffffffffffffff167f16a9aa39af49f169911e977347975198c503525f7240d6892a626f0227642fce60405160405180910390a25050565b3373ffffffffffffffffffffffffffffffffffffffff1660008054906101000a900473ffffffffffffffffffffffffffffffffffffffff1673ffffffffffffffffffffffffffffffffffffffff16146108c5576040517f08c379a00000000000000000000000000000000000000000000000000000000081526004016108bc90610cee565b60405180910390fd5b600060149054906101000a900460ff1615610915576040517f08c379a000000000000000000000000000000000000000000000000000000000815260040161090c90610d4e565b60405180910390fd5b600460008273ffffffffffffffffffffffffffffffffffffffff1673ffffffffffffffffffffffffffffffffffffffff16815260200190815260200160002060009054906101000a900460ff16156109a2576040517f08c379a000000000000000000000000000000000000000000000000000000000815260040161099990610cce565b60405180910390fd5b6001600460008373ffffffffffffffffffffffffffffffffffffffff1673ffffffffffffffffffffffffffffffffffffffff16815260200190815260200160002060006101000a81548160ff0219169083151502179055508073ffffffffffffffffffffffffffffffffffffffff163373ffffffffffffffffffffffffffffffffffffffff167ff21946dbf04c3ba5519da9bfd5bbf8542ff72bfcd68ee237796b70cb1d7a195260405160405180910390a350565b6040518060600160405280600390602082028036833780820191505090505090565b600081359050610a8881611098565b92915050565b600081359050610a9d816110af565b92915050565b600060208284031215610ab557600080fd5b6000610ac384828501610a79565b91505092915050565b60008060408385031215610adf57600080fd5b6000610aed85828601610a79565b9250506020610afe85828601610a8e565b9150509250929050565b6000610b148383610c82565b60208301905092915050565b610b2981610d98565b610b338184610dbb565b9250610b3e82610d8e565b8060005b83811015610b6f578151610b568782610b08565b9650610b6183610dae565b925050600181019050610b42565b505050505050565b6000610b8282610da3565b610b8c8185610dc6565b9350610b9c818560208601610e13565b610ba581610f1f565b840191505092915050565b6000610bbd601b83610dc6565b9150610bc882610f30565b602082019050919050565b6000610be0602283610dc6565b9150610beb82610f59565b604082019050919050565b6000610c03601983610dc6565b9150610c0e82610fa8565b602082019050919050565b6000610c26603083610dc6565b9150610c3182610fd1565b604082019050919050565b6000610c49602283610dc6565b9150610c5482611020565b604082019050919050565b6000610c6c601683610dc6565b9150610c778261106f565b602082019050919050565b610c8b81610e09565b82525050565b6000606082019050610ca66000830184610b20565b92915050565b60006020820190508181036000830152610cc68184610b77565b905092915050565b60006020820190508181036000830152610ce781610bb0565b9050919050565b60006020820190508181036000830152610d0781610bd3565b9050919050565b60006020820190508181036000830152610d2781610bf6565b9050919050565b60006020820190508181036000830152610d4781610c19565b9050919050565b60006020820190508181036000830152610d6781610c3c565b9050919050565b60006020820190508181036000830152610d8781610c5f565b9050919050565b6000819050919050565b600060039050919050565b600081519050919050565b6000602082019050919050565b600081905092915050565b600082825260208201905092915050565b6000610de282610de9565b9050919050565b600073ffffffffffffffffffffffffffffffffffffffff82169050919050565b6000819050919050565b60005b83811015610e31578082015181840152602081019050610e16565b83811115610e40576000848401525b50505050565b60006002820490506001821680610e5e57607f821691505b60208210811415610e7257610e71610ef0565b5b50919050565b6000610e8382610e09565b91507fffffffffffffffffffffffffffffffffffffffffffffffffffffffffffffffff821415610eb657610eb5610ec1565b5b600182019050919050565b7f4e487b7100000000000000000000000000000000000000000000000000000000600052601160045260246000fd5b7f4e487b7100000000000000000000000000000000000000000000000000000000600052602260045260246000fd5b6000601f19601f8301169050919050565b7f566f746572206164647265737320616c72656164792065786973740000000000600082015250565b7f4f6e6c7920746865206f776e65722063616e207573652074686973206d65746860008201527f6f64000000000000000000000000000000000000000000000000000000000000602082015250565b7f5065726d697373696f6e2064656e69656420746f20766f746500000000000000600082015250565b7f596f752063616e206f6e6c79206765742074686520726573756c74206166746560008201527f72207468652066696e616c20766f746500000000000000000000000000000000602082015250565b7f5468652063757272656e7420766f74652068617320616c726561647920656e6460008201527f6564000000000000000000000000000000000000000000000000000000000000602082015250565b7f596f75206861766520616c726561647920766f74656400000000000000000000600082015250565b6110a181610dd7565b81146110ac57600080fd5b50565b600381106110bc57600080fd5b5056fea2646970667358221220e47b707c5b555ca77439b1663c782281c90a1c9dc473bead7a0ccff489e7a79164736f6c63430008030033a2646970667358221220672fc5536c658c2dcd57e992501339d3c12d25d95770f6b6e2c7c02fcea8566e64736f6c63430008030033",
  "immutableReferences": {},
  "source": "// SPDX-License-Identifier: MIT\npragma solidity >=0.4.22 <0.9.0;\npragma experimental ABIEncoderV2;\n\n// import 'https://github.com/OpenZeppelin/openzeppelin-contracts/blob/master/contracts/utils/Counters.sol';\nimport './Counters.sol';\nimport './Vote.sol';\n\n\ncontract PollFactory {\n\n    using Counters for Counters.Counter;\n    Counters.Counter private pollID;\n    \n    enum Status { IN_PROGRESS, DONE }\n    \n    \n    struct Poll {\n        uint voteID;\n        address owner;\n        string [2] info;\n        Status status;\n        Vote vote;\n    }\n    \n    struct Info {\n        uint voteID;\n        string [2] info;\n        Status status;\n    }\n    \n    mapping(uint => Poll) private pollsByID;\n    \n\n    mapping(address => Info []) private creatorPolls;\n    \n   \n    mapping(address => Info []) private voterPolls;\n    \n    event StartVote(address indexed from, uint voteID);\n    event EndVote(address indexed from, uint[3] value, uint pollID);\n    event NewVoter(address indexed from, address indexed to, uint pollID);\n    event Voted(address indexed from, uint pollID);\n    \n    \n    function getPollInfoByID(uint _pollID) public view returns ( Info memory ) {\n        \n        return Info({\n            \n            voteID: pollsByID[_pollID].voteID,\n            info: pollsByID[_pollID].info,\n            status : pollsByID[_pollID].status\n            \n            });\n        \n        }\n    \n\n    function createPoll(string memory _title, string memory _description) public returns(uint ID ) {\n        \n        pollsByID[pollID.current()] = Poll({\n            voteID : pollID.current(),\n            owner: msg.sender,\n            info : [_title, _description],\n            status : Status.IN_PROGRESS,\n            vote : new Vote(_title, _description)\n        });\n        \n        \n        creatorPolls[msg.sender].push(getPollInfoByID(pollID.current()));\n        \n        \n        pollID.increment();\n        \n        emit StartVote(msg.sender, pollID.current());\n\n        return pollID.current();\n        \n    }\n    \n\n    \n    function addVoterToPoll(address _voter, uint _pollID) public {\n        \n        require (pollsByID[_pollID].voteID == _pollID, \"Voting is not created yet\");\n        \n        require (pollsByID[_pollID].status == Status.IN_PROGRESS, \"Voting has already ended\");\n        \n        require (pollsByID[_pollID].owner == msg.sender, \"Only the owner can use this method\");\n        \n        pollsByID[_pollID].vote.addVoter(_voter);\n    \n        voterPolls[_voter].push(getPollInfoByID(_pollID));\n\n        emit NewVoter(msg.sender, _voter, _pollID);\n        \n    }\n\n\n    function getVoterPolls () public view returns (Info[] memory) {\n        \n        require (voterPolls[msg.sender].length > 0, \"You are not yet voting\");\n\n        return voterPolls[msg.sender];\n        \n    }\n    \n    \n    function getCreatedPolls() public view returns (Info[] memory) { \n\n        require (creatorPolls[msg.sender].length > 0, \"You haven't created any polls yet\");\n                \n        return creatorPolls[msg.sender];\n        \n        \n    }\n\n\n  \n    function toVote (Vote.choices _choice , uint _pollID) public {\n        \n        require (pollsByID[_pollID].voteID == _pollID, \"Voting is not created yet\");\n        \n        require (pollsByID[_pollID].status == Status.IN_PROGRESS, \"Voting has already ended\");\n        \n        pollsByID[_pollID].vote.vote(msg.sender, _choice );\n        \n        emit Voted(msg.sender, _pollID);\n    }\n    \n    \n    \n    function getPollResults(uint _pollID) public view returns (uint[3] memory) {\n        \n        require (pollsByID[_pollID].voteID == _pollID, \"Voting is not created yet\");\n\n        require (pollsByID[_pollID].status == Status.DONE, \"Voting is not over yet\");    \n        \n        return pollsByID[_pollID].vote.getResults();\n\n    }\n    \n    \n    function endPoll(uint _pollID) public {\n   \n        require (pollsByID[_pollID].voteID == _pollID, \"Voting is not created yet\");\n        \n        require (pollsByID[_pollID].owner == msg.sender, \"Only the owner can use this method\");\n        \n        pollsByID[_pollID].vote.endVote();\n        \n        pollsByID[_pollID].status = Status.DONE;\n\n        uint[3] memory results =  getPollResults(_pollID);\n\n        emit EndVote(msg.sender, results, _pollID);\n\n    }\n     \n  }",
  "sourcePath": "/home/prg/prg/482/work/PollDApp/contracts/PollFactory.sol",
  "compiler": {
    "name": "solc",
    "version": "0.8.3+commit.8d00100c.Emscripten.clang"
  },
  "schemaVersion": "3.3.4",
  "updatedAt": "2021-04-22T12:56:00.695Z",
  "devdoc": {
    "kind": "dev",
    "methods": {},
    "version": 1
  },
  "userdoc": {
    "kind": "user",
    "methods": {},
    "version": 1
  }
}