{
  "contractName": "Vote",
  "abi": [
    {
      "inputs": [
        {
          "internalType": "string",
          "name": "_title",
          "type": "string"
        },
        {
          "internalType": "string",
          "name": "_description",
          "type": "string"
        }
      ],
      "stateMutability": "nonpayable",
      "type": "constructor"
    },
    {
      "anonymous": false,
      "inputs": [
        {
          "indexed": true,
          "internalType": "address",
          "name": "from",
          "type": "address"
        },
        {
          "indexed": false,
          "internalType": "uint256[3]",
          "name": "value",
          "type": "uint256[3]"
        }
      ],
      "name": "EndVote",
      "type": "event"
    },
    {
      "anonymous": false,
      "inputs": [
        {
          "indexed": true,
          "internalType": "address",
          "name": "from",
          "type": "address"
        },
        {
          "indexed": true,
          "internalType": "address",
          "name": "to",
          "type": "address"
        }
      ],
      "name": "NewVoter",
      "type": "event"
    },
    {
      "anonymous": false,
      "inputs": [
        {
          "indexed": true,
          "internalType": "address",
          "name": "from",
          "type": "address"
        }
      ],
      "name": "StartVote",
      "type": "event"
    },
    {
      "anonymous": false,
      "inputs": [
        {
          "indexed": true,
          "internalType": "address",
          "name": "from",
          "type": "address"
        }
      ],
      "name": "Voted",
      "type": "event"
    },
    {
      "inputs": [],
      "name": "description",
      "outputs": [
        {
          "internalType": "string",
          "name": "",
          "type": "string"
        }
      ],
      "stateMutability": "view",
      "type": "function"
    },
    {
      "inputs": [],
      "name": "title",
      "outputs": [
        {
          "internalType": "string",
          "name": "",
          "type": "string"
        }
      ],
      "stateMutability": "view",
      "type": "function"
    },
    {
      "inputs": [
        {
          "internalType": "address",
          "name": "voter",
          "type": "address"
        }
      ],
      "name": "addVoter",
      "outputs": [],
      "stateMutability": "nonpayable",
      "type": "function"
    },
    {
      "inputs": [
        {
          "internalType": "address",
          "name": "voter",
          "type": "address"
        },
        {
          "internalType": "enum Vote.choices",
          "name": "choice",
          "type": "uint8"
        }
      ],
      "name": "vote",
      "outputs": [],
      "stateMutability": "nonpayable",
      "type": "function"
    },
    {
      "inputs": [],
      "name": "endVote",
      "outputs": [
        {
          "internalType": "uint256[3]",
          "name": "",
          "type": "uint256[3]"
        }
      ],
      "stateMutability": "nonpayable",
      "type": "function"
    },
    {
      "inputs": [],
      "name": "getResults",
      "outputs": [
        {
          "internalType": "uint256[3]",
          "name": "",
          "type": "uint256[3]"
        }
      ],
      "stateMutability": "view",
      "type": "function"
    }
  ],
  "bytecode": "0x60806040523480156200001157600080fd5b506040516200169b3803806200169b8339818101604052810190620000379190620002be565b60008251116200007e576040517f08c379a000000000000000000000000000000000000000000000000000000000815260040162000075906200037f565b60405180910390fd5b6000815111620000c5576040517f08c379a0000000000000000000000000000000000000000000000000000000008152600401620000bc90620003a1565b60405180910390fd5b336000806101000a81548173ffffffffffffffffffffffffffffffffffffffff021916908373ffffffffffffffffffffffffffffffffffffffff16021790555081600190805190602001906200011d9291906200019c565b508060029080519060200190620001369291906200019c565b5060008060146101000a81548160ff0219169083151502179055503373ffffffffffffffffffffffffffffffffffffffff167f3f5036a427474966327b08a2e16707c7b2f704c86204bd2f669e9580e0f51a5260405160405180910390a2505062000596565b828054620001aa9062000469565b90600052602060002090601f016020900481019282620001ce57600085556200021a565b82601f10620001e957805160ff19168380011785556200021a565b828001600101855582156200021a579182015b8281111562000219578251825591602001919060010190620001fc565b5b5090506200022991906200022d565b5090565b5b80821115620002485760008160009055506001016200022e565b5090565b6000620002636200025d84620003ec565b620003c3565b9050828152602081018484840111156200027c57600080fd5b6200028984828562000433565b509392505050565b600082601f830112620002a357600080fd5b8151620002b58482602086016200024c565b91505092915050565b60008060408385031215620002d257600080fd5b600083015167ffffffffffffffff811115620002ed57600080fd5b620002fb8582860162000291565b925050602083015167ffffffffffffffff8111156200031957600080fd5b620003278582860162000291565b9150509250929050565b60006200034060108362000422565b91506200034d8262000544565b602082019050919050565b60006200036760168362000422565b915062000374826200056d565b602082019050919050565b600060208201905081810360008301526200039a8162000331565b9050919050565b60006020820190508181036000830152620003bc8162000358565b9050919050565b6000620003cf620003e2565b9050620003dd82826200049f565b919050565b6000604051905090565b600067ffffffffffffffff8211156200040a576200040962000504565b5b620004158262000533565b9050602081019050919050565b600082825260208201905092915050565b60005b838110156200045357808201518184015260208101905062000436565b8381111562000463576000848401525b50505050565b600060028204905060018216806200048257607f821691505b60208210811415620004995762000498620004d5565b5b50919050565b620004aa8262000533565b810181811067ffffffffffffffff82111715620004cc57620004cb62000504565b5b80604052505050565b7f4e487b7100000000000000000000000000000000000000000000000000000000600052602260045260246000fd5b7f4e487b7100000000000000000000000000000000000000000000000000000000600052604160045260246000fd5b6000601f19601f8301169050919050565b7f5469746c65206973207265717569726500000000000000000000000000000000600082015250565b7f4465736372697074696f6e206973207265717569726500000000000000000000600082015250565b6110f580620005a66000396000f3fe608060405234801561001057600080fd5b50600436106100625760003560e01c80634717f97c146100675780634a79d50c146100855780637284e416146100a3578063b9223946146100c1578063bceb514d146100df578063f4ab9adf146100fb575b600080fd5b61006f610117565b60405161007c9190610c91565b60405180910390f35b61008d610318565b60405161009a9190610cac565b60405180910390f35b6100ab6103a6565b6040516100b89190610cac565b60405180910390f35b6100c9610434565b6040516100d69190610c91565b60405180910390f35b6100f960048036038101906100f49190610acc565b610596565b005b61011560048036038101906101109190610aa3565b610837565b005b61011f610a57565b600060149054906101000a900460ff1661016e576040517f08c379a000000000000000000000000000000000000000000000000000000000815260040161016590610d2e565b60405180910390fd5b6040518060600160405280600360008060028111156101b6577f4e487b7100000000000000000000000000000000000000000000000000000000600052602160045260246000fd5b60028111156101ee577f4e487b7100000000000000000000000000000000000000000000000000000000600052602160045260246000fd5b81526020019081526020016000205481526020016003600060016002811115610240577f4e487b7100000000000000000000000000000000000000000000000000000000600052602160045260246000fd5b6002811115610278577f4e487b7100000000000000000000000000000000000000000000000000000000600052602160045260246000fd5b8152602001908152602001600020548152602001600360006002808111156102c9577f4e487b7100000000000000000000000000000000000000000000000000000000600052602160045260246000fd5b6002811115610301577f4e487b7100000000000000000000000000000000000000000000000000000000600052602160045260246000fd5b815260200190815260200160002054815250905090565b6001805461032590610e46565b80601f016020809104026020016040519081016040528092919081815260200182805461035190610e46565b801561039e5780601f106103735761010080835404028352916020019161039e565b820191906000526020600020905b81548152906001019060200180831161038157829003601f168201915b505050505081565b600280546103b390610e46565b80601f01602080910402602001604051908101604052809291908181526020018280546103df90610e46565b801561042c5780601f106104015761010080835404028352916020019161042c565b820191906000526020600020905b81548152906001019060200180831161040f57829003601f168201915b505050505081565b61043c610a57565b3373ffffffffffffffffffffffffffffffffffffffff1660008054906101000a900473ffffffffffffffffffffffffffffffffffffffff1673ffffffffffffffffffffffffffffffffffffffff16146104ca576040517f08c379a00000000000000000000000000000000000000000000000000000000081526004016104c190610cee565b60405180910390fd5b600060149054906101000a900460ff161561051a576040517f08c379a000000000000000000000000000000000000000000000000000000000815260040161051190610d4e565b60405180910390fd5b6001600060146101000a81548160ff021916908315150217905550600061053f610117565b90503373ffffffffffffffffffffffffffffffffffffffff167fc0eca9b8dc65ce855c7588257602ca2802b96a53ad931fffaa898bb0d581d861826040516105879190610c91565b60405180910390a28091505090565b600060149054906101000a900460ff16156105e6576040517f08c379a00000000000000000000000000000000000000000000000000000000081526004016105dd90610d4e565b60405180910390fd5b600460008373ffffffffffffffffffffffffffffffffffffffff1673ffffffffffffffffffffffffffffffffffffffff16815260200190815260200160002060009054906101000a900460ff16610672576040517f08c379a000000000000000000000000000000000000000000000000000000000815260040161066990610d0e565b60405180910390fd5b600560008373ffffffffffffffffffffffffffffffffffffffff1673ffffffffffffffffffffffffffffffffffffffff16815260200190815260200160002060009054906101000a900460ff16156106ff576040517f08c379a00000000000000000000000000000000000000000000000000000000081526004016106f690610d6e565b60405180910390fd5b6003600082600281111561073c577f4e487b7100000000000000000000000000000000000000000000000000000000600052602160045260246000fd5b6002811115610774577f4e487b7100000000000000000000000000000000000000000000000000000000600052602160045260246000fd5b8152602001908152602001600020600081548092919061079390610e78565b91905055506001600560008473ffffffffffffffffffffffffffffffffffffffff1673ffffffffffffffffffffffffffffffffffffffff16815260200190815260200160002060006101000a81548160ff0219169083151502179055508173ffffffffffffffffffffffffffffffffffffffff167f16a9aa39af49f169911e977347975198c503525f7240d6892a626f0227642fce60405160405180910390a25050565b3373ffffffffffffffffffffffffffffffffffffffff1660008054906101000a900473ffffffffffffffffffffffffffffffffffffffff1673ffffffffffffffffffffffffffffffffffffffff16146108c5576040517f08c379a00000000000000000000000000000000000000000000000000000000081526004016108bc90610cee565b60405180910390fd5b600060149054906101000a900460ff1615610915576040517f08c379a000000000000000000000000000000000000000000000000000000000815260040161090c90610d4e565b60405180910390fd5b600460008273ffffffffffffffffffffffffffffffffffffffff1673ffffffffffffffffffffffffffffffffffffffff16815260200190815260200160002060009054906101000a900460ff16156109a2576040517f08c379a000000000000000000000000000000000000000000000000000000000815260040161099990610cce565b60405180910390fd5b6001600460008373ffffffffffffffffffffffffffffffffffffffff1673ffffffffffffffffffffffffffffffffffffffff16815260200190815260200160002060006101000a81548160ff0219169083151502179055508073ffffffffffffffffffffffffffffffffffffffff163373ffffffffffffffffffffffffffffffffffffffff167ff21946dbf04c3ba5519da9bfd5bbf8542ff72bfcd68ee237796b70cb1d7a195260405160405180910390a350565b6040518060600160405280600390602082028036833780820191505090505090565b600081359050610a8881611098565b92915050565b600081359050610a9d816110af565b92915050565b600060208284031215610ab557600080fd5b6000610ac384828501610a79565b91505092915050565b60008060408385031215610adf57600080fd5b6000610aed85828601610a79565b9250506020610afe85828601610a8e565b9150509250929050565b6000610b148383610c82565b60208301905092915050565b610b2981610d98565b610b338184610dbb565b9250610b3e82610d8e565b8060005b83811015610b6f578151610b568782610b08565b9650610b6183610dae565b925050600181019050610b42565b505050505050565b6000610b8282610da3565b610b8c8185610dc6565b9350610b9c818560208601610e13565b610ba581610f1f565b840191505092915050565b6000610bbd601b83610dc6565b9150610bc882610f30565b602082019050919050565b6000610be0602283610dc6565b9150610beb82610f59565b604082019050919050565b6000610c03601983610dc6565b9150610c0e82610fa8565b602082019050919050565b6000610c26603083610dc6565b9150610c3182610fd1565b604082019050919050565b6000610c49602283610dc6565b9150610c5482611020565b604082019050919050565b6000610c6c601683610dc6565b9150610c778261106f565b602082019050919050565b610c8b81610e09565b82525050565b6000606082019050610ca66000830184610b20565b92915050565b60006020820190508181036000830152610cc68184610b77565b905092915050565b60006020820190508181036000830152610ce781610bb0565b9050919050565b60006020820190508181036000830152610d0781610bd3565b9050919050565b60006020820190508181036000830152610d2781610bf6565b9050919050565b60006020820190508181036000830152610d4781610c19565b9050919050565b60006020820190508181036000830152610d6781610c3c565b9050919050565b60006020820190508181036000830152610d8781610c5f565b9050919050565b6000819050919050565b600060039050919050565b600081519050919050565b6000602082019050919050565b600081905092915050565b600082825260208201905092915050565b6000610de282610de9565b9050919050565b600073ffffffffffffffffffffffffffffffffffffffff82169050919050565b6000819050919050565b60005b83811015610e31578082015181840152602081019050610e16565b83811115610e40576000848401525b50505050565b60006002820490506001821680610e5e57607f821691505b60208210811415610e7257610e71610ef0565b5b50919050565b6000610e8382610e09565b91507fffffffffffffffffffffffffffffffffffffffffffffffffffffffffffffffff821415610eb657610eb5610ec1565b5b600182019050919050565b7f4e487b7100000000000000000000000000000000000000000000000000000000600052601160045260246000fd5b7f4e487b7100000000000000000000000000000000000000000000000000000000600052602260045260246000fd5b6000601f19601f8301169050919050565b7f566f746572206164647265737320616c72656164792065786973740000000000600082015250565b7f4f6e6c7920746865206f776e65722063616e207573652074686973206d65746860008201527f6f64000000000000000000000000000000000000000000000000000000000000602082015250565b7f5065726d697373696f6e2064656e69656420746f20766f746500000000000000600082015250565b7f596f752063616e206f6e6c79206765742074686520726573756c74206166746560008201527f72207468652066696e616c20766f746500000000000000000000000000000000602082015250565b7f5468652063757272656e7420766f74652068617320616c726561647920656e6460008201527f6564000000000000000000000000000000000000000000000000000000000000602082015250565b7f596f75206861766520616c726561647920766f74656400000000000000000000600082015250565b6110a181610dd7565b81146110ac57600080fd5b50565b600381106110bc57600080fd5b5056fea2646970667358221220e47b707c5b555ca77439b1663c782281c90a1c9dc473bead7a0ccff489e7a79164736f6c63430008030033",
  "immutableReferences": {},
  "source": "// SPDX-License-Identifier: MIT\npragma solidity >=0.4.22 <0.9.0;\n\ncontract Vote {\n    address owner;\n    bool isEnded;\n    string public title;\n    string public description;\n    \n    enum choices { YES, NO, ND}\n    \n    mapping(choices => uint) voterResults;\n    mapping(address => bool) allowedParticipants;\n    mapping(address => bool) votedParticipants;\n    \n    event StartVote(address indexed from);\n    event EndVote(address indexed from, uint[3] value);\n    event NewVoter(address indexed from, address indexed to);\n    event Voted(address indexed from);\n\n    constructor(string memory _title, string memory _description){\n        require(bytes(_title).length > 0, \"Title is require\");\n        require(bytes(_description).length > 0, \"Description is require\");\n        owner = msg.sender;\n        title = _title;\n        description = _description;\n        isEnded = false;\n        emit StartVote(msg.sender);\n    }\n    \n    function addVoter(address voter) public {\n        require(owner == msg.sender, \"Only the owner can use this method\");\n        require(!isEnded, \"The current vote has already ended\");\n        require(!allowedParticipants[voter], \"Voter address already exist\");\n        allowedParticipants[voter] = true;\n        emit NewVoter(msg.sender, voter);\n    }\n    \n    function vote(address voter, choices choice) public {\n        require(!isEnded, \"The current vote has already ended\");\n        require(allowedParticipants[voter], \"Permission denied to vote\");\n        require(!votedParticipants[voter], \"You have already voted\");\n        voterResults[choice]++;\n        votedParticipants[voter] = true;\n        emit Voted(voter);\n    }\n    \n    function endVote() public returns (uint[3] memory){\n        require(owner == msg.sender, \"Only the owner can use this method\");\n        require(!isEnded, \"The current vote has already ended\");\n        isEnded = true;\n        uint[3] memory results = getResults();\n        emit EndVote(msg.sender, results);\n        return results;\n    }\n    \n    function getResults() public view returns (uint[3] memory) {\n        require(isEnded, \"You can only get the result after the final vote\");\n        return [voterResults[choices.YES], voterResults[choices.NO], voterResults[choices.ND]];\n    }\n    \n}\n\n\n",
  "sourcePath": "/home/prg/prg/482/work/PollDApp/contracts/Vote.sol",
  "compiler": {
    "name": "solc",
    "version": "0.8.3+commit.8d00100c.Emscripten.clang"
  },
  "schemaVersion": "3.3.4",
  "updatedAt": "2021-04-22T12:52:05.436Z",
  "devdoc": {
    "kind": "dev",
    "methods": {},
    "version": 1
  },
  "userdoc": {
    "kind": "user",
    "methods": {},
    "version": 1
  }
}